:020000040000FA
:10000000100A0020D11B000049020000430200003A
:1000100043020000430200004302000043020000CC
:10002000000000000000000000000000430200008B
:10003000430200000000000043020000DB1B000040
:100040001D410000EF4100009F4100009940000069
:10005000292D0000993100002924000043210000CF
:100060007D21000071240000B32400000320000063
:10007000A32000007F1E0000BB1E0000F71E000032
:10008000331F00006F1F0000AB1F0000B7210000EE
:1000900005220000392200006D220000A12200008C
:1000A000D5220000092300009F3100009931000093
:1000B0009F31000000000000000000000000000070
:1000C0000000000000000000000000000000000030
:1000D0000000000000000000000000000000000020
:1000E0000000000000000000000000000000000010
:1000F0000000000000000000000000000000000000
:1001000000000000000000000000000000000000EF
:1001100000000000000000000000000000000000DF
:1001200000000000000000000000000000000000CF
:1001300000000000000000000000000000000000BF
:1001400000000000000000000000000000000000AF
:10015000000000000000000000000000000000009F
:10016000000000000000000000000000000000008F
:10017000000000000000000000000000000000007F
:10018000000000000000000000000000000000006F
:10019000000000000000000000000000000000005F
:1001A000000000000000000000000000000000004F
:1001B000000000000000000000000000000000003F
:1001C00040EA01039B0703D009E008C9121F08C0D9
:1001D000042AFAD203E011F8013B00F8013B521E59
:1001E000F9D27047D2B201E000F8012B491EFBD2D0
:1001F00070470022F6E710B513460A460446194632
:10020000FFF7F0FF204610BD421C10F8011B00292B
:10021000FBD1801A704730B50B46014600202022E2
:10022000012409E021FA02F59D4205D303FA02F503
:10023000491B04FA02F52844151EA2F10102F1DC63
:1002400030BD00BE704700002DE9F04146F2201895
:10025000C4F20008B8F80000B8F8201040F24C15BD
:1002600001EA0006B7B20024C2F2000527FA04F042
:10027000C00704D055F8241009B12046884701343E
:10028000102CF3D1A8F81060BDE8F08180B541686A
:100290004FF0000CCA69C0F800C0002A16D402F062
:1002A0001F03012199404EF280135209CEF2000340
:1002B00043F82210BFF34F8FBFF36F8F416840F2B6
:1002C000FC22C969C2F2000242F821C04FF0010EBF
:1002D000EFF310828EF31088836883F800C0836880
:1002E000197C01F0FE01197482F31088EFF310817C
:1002F0008EF3108844F20C024068C4F208020078C1
:100300001368C0F11C000EFA00F01843106010686A
:1003100081F31088002080BD80B580680078C0F32C
:100320004110F0B14EF22002C4F20102126840F214
:100330005403C2F3026CC2F20003C2F3022E042281
:100340001B6802FA00F040F60012C0F23D0203FA08
:100350000CF300FB02F023FA0EF2B0FBF2F0821C69
:1003600000E0012200200A6080BD70B50B7844F2E5
:10037000000C0246C4F20F0CC8690CEB03230028E2
:10038000936051600CD44B7E4EF200441B01CEF2C0
:100390000004035540F2FC23C2F2000343F820207E
:1003A0000120EFF3108380F3108844F20C050C78E1
:1003B000C4F20805C4F11C042968A04021EA000029
:1003C0002860286883F31088002190680170906885
:1003D000037C03F0FE03037490680171906801725E
:1003E00051688B6AD1E902E05E680C69FF2E11D179
:1003F000296821F08051296029680121EFF31085D7
:1004000081F310889CF8101041F080018CF81010D6
:1004100085F3108819689668317144EACE015B68EB
:10042000966841EA40103372916840F0800008708D
:1004300045F24801C4F24D310020116070BD80B515
:100440004FF0010CEFF3108E8CF31088836819784D
:1004500041F002011970D0E90113097D1A7C01F005
:10046000010102F0FE02114419748EF310884068F5
:10047000C06900281CD446F20031C4F2000151F8D2
:10048000202022F4803241F8202000F01F020CFAD4
:1004900002F24EF2001C51F820104009CEF2000C7E
:1004A0000CEB8003BFF35F8FC3F880214CF8202052
:1004B000002080BD80B5D0F808C09CF800209207CD
:1004C00001D402201DE09CF80C309CF8002012F0B2
:1004D000600F01D09E4610E04068806A806842420A
:1004E0009E469CF80C3002F1010012B173450246A1
:1004F000F6D1012804BF142080BDBEF1010F03D145
:1005000001200860002080BD0020086080BD10B57B
:10051000044600202060204601F018FF204601F02C
:10052000E9FF40F600420146C4F2170200201160C4
:1005300010BD8446C0E905130020CCF81C2070478C
:10054000B0B540F2C0250446C4F2170501F0FEFE26
:1005500000200021C4E90800C4E90100286600BFAA
:1005600055F8212045F8210001310429F8D12069EE
:100570004EF28013C06A0122C16ECEF2000301F177
:100580001400603150F8045B05F01F0402FA04F413
:100590006D0943F82540BFF34F8FBFF36F8F88423B
:1005A000F0D943F20001C4F20F0191F90000B0F15B
:1005B000FF3F44F20C00C4F2080013DC0A7802F09A
:1005C000EF020A700A7802F07F020A70EFF31082DD
:1005D000012181F31088016841F480010160016804
:1005E00082F310880121EFF3108281F310880168F3
:1005F00041F480310160006882F310880020B0BDB2
:1006000000204FF0FF32C1E90000C1E90402088375
:1006100043F20000C1E90222C4F20F0090F9000089
:10062000B0F1FF3F06DC4BF27C10C4F27F000068A3
:1006300080B248614FF47A6200200A837047062036
:10064000704700002DE9F04384460161D1E90902B9
:10065000C96ACCF814000020CCF81C2044F20C022B
:10066000CCF81800CCF80000EFF31087C4F20802B1
:10067000012383F31088136823F480331360136815
:1006800087F310888B8B03F00303012B0BD101231D
:10069000EFF3108783F31088536823F0004353600F
:1006A000526887F310880A6A40F2000EC4F2170EEF
:1006B000CEF80C20CEF80000DEF804000028FBD1B4
:1006C000C869CEF808000120CEF80000DEF804006A
:1006D0000128FBD1486ACEF840000020CEF8440043
:1006E000D1F89C20CEF8602291F8902002F0070209
:1006F000CEF8802291F89020C2F30212CEF88C221C
:10070000D1F89420CEF88822D1F89820CEF89422FF
:100710004A69CEF840238A69CEF8442351F8202054
:100720000EEB8003013042F480320428C3F8C0226B
:10073000F4D1087C0204002818BF0132CEF800234F
:10074000486ECEF86402886ECEF8B002002000BF7A
:100750000A18D2F8A0300EEB0004C4F86033D2F8C7
:10076000C0300430C4F88033D2F8E4202028C4F824
:10077000A423EDD1D1F8E0000023CEF8A00340F28D
:100780000440C4F21700CEF8003403604360836075
:100790000A8F40F2FC28C0F8BC204A8FC2F2000841
:1007A000C0F8C020CA6B4FF00109C0F8C4200A6C21
:1007B000C0F8C8204A6CC0F8CC208A6CC0F8D020A1
:1007C000C96C4EF20012C0F8D41040F6F040C4F2EA
:1007D000170040F2FF110160DCF81000CEF20002B9
:1007E000C06AC16E46F20030C4F2000001F1130489
:1007F00001EB83077F69002F1BD4CD5CD6192D0137
:1008000086F8005348F827C050F827507E0925F491
:10081000803540F8275050F8275007F01F0502EBAD
:10082000860709FA05F5BFF35F8FC7F8805142F8D4
:1008300026500133CD18A542DAD94FF44030CEF816
:100840002800032044F24831CEF82000CEF82400DE
:10085000C4F244110020CCF82410BDE8F0834FF618
:100860008060CFF6FF7000EB810041F20003C4F21C
:100870001703184400F5C0701D2938BF03EB810031
:100880000168252000EAE170118070474FF6806012
:10089000CFF6FF7000EB810041F20003C4F21703B2
:1008A000184400F5C0701D2938BF03EB81000168B2
:1008B000252000EAE17089B2116070472DE9F04F00
:1008C00089B0026940F24809D76A06910021C4F252
:1008D00017090022016000BF09EB02031032B2F5D4
:1008E000147FC3F8B815F7D1F96AC9F80410396B49
:1008F000C9F80810796BC9F80C10396DC9F878116E
:10090000796DC9F87C11B96DC9F88011F96DC9F814
:100910008411396E7037C9F88811002157F82120E9
:1009200009EB810301310829C3F8F821F6D10699B2
:100930004FF0000C0978C0F804C00029C0F808C0C6
:10094000019000F09F8040F2046543F200084FF0F0
:10095000000AC4F217058C46C4F20F0800260023D3
:100960000698CDE904634168012651F82AB0DBE915
:100970000312DBF800009BF80A70079051EA0203AB
:1009800006FA00F3CDE9023704D1DBF81420002A7F
:1009900071D0002201981F4643681F43DBF81430D2
:1009A0004760079809EB001707F1780E8EE80E00F4
:1009B0009BF80920DBF81C1009EB8003002AC3F820
:1009C000B81149D0002700BFDBF8240050F82700F9
:1009D000D0E9001209EB01130C01C3F8B8258268B5
:1009E00005EB01112A51C2684A6002698A604068B9
:1009F000C0F30620622825D0612825D198F900008F
:100A0000002821D444F20C02EFF3108086F3108802
:100A1000C4F20802116821F480011160116880F3AA
:100A20001088012198F8000040F0800088F800004C
:100A30001E2000F0FAF898F8000040F0100088F846
:100A4000000001E0C9F8D8629BF80900013787422D
:100A5000BAD3069890F800C0049E02980399064302
:100A60000798059B81400AF1010AE24543EA010328
:100A7000FFF476AF08E0019882681A438260002391
:100A800000228EE700230026DDF804800120D8F83C
:100A90001010BCF1000FC96A91F8222020EA020769
:100AA00020EA52028DF822708DF8232024D0088C81
:100AB00040F6FE77D8F804E007EA400001F150075D
:100AC00000250DF1220A0021BEF1000F14D0069A74
:100AD000546837F8152054F82540013564681AF831
:100AE0000440002C044608BF04242244914238BF2D
:100AF0001146AC45E8D100E00021481C44F24831E1
:100B0000C4F24411C8F80C00C9F80060C9F81430E8
:100B10000020C8F8201009B0BDE8F08F80B540F67D
:100B2000084ED0F804C0C4F2170EDEF800200CEA1C
:100B300001031A43CEF800208068DEF80820084040
:100B400042EA00010020CEF8081080BD416840F65E
:100B50000842C4F21702116081680020916070475A
:100B600080B501F0F3FB002080BD40F68042C4F266
:100B70001702006812680138002A18BF01220428F1
:100B800038BF022200200A60704780B50122EFF3CF
:100B9000108182F3108840F2E412C2F2000232F8AF
:100BA00010308BB94EF2FE3C44F21C73C4F2010CBF
:100BB000C0F20003BCF800E033F8103043EA0E0343
:100BC00043F42543ACF8003032F81030013322F8FA
:100BD000103081F3108880BD0122EFF3108182F381
:100BE000108840F2E412C2F2000232F8103023B151
:100BF00032F81030013B22F8103032F810208AB958
:100C00004EF2FE3CC4F2010C44F21C72BCF80030FF
:100C1000C0F2000232F8100043F4254222EA00003C
:100C2000ACF8000081F31088704740F25402C2F221
:100C30000002126801FB00F04CF60021C3F69A3165
:100C40004FF47A7CB1FBF2F1A0FB0C321AB9B3FB82
:100C5000F1F0800805E08900B0FBF1F0A0FB0C0189
:100C600019B908B101F09FBE70474FF0FF3001F095
:100C70009ABE022818BF704740F2DC1044F6682183
:100C8000C2F20000C0F2000100F036BC80B501469F
:100C9000EFF3108C012080F31088C8684B7890F82F
:100CA00004E07F22002B08BF6FF040020EEA02032F
:100CB0000371C868037A1A4002728CF3108800220C
:100CC00000204A6080BD10B50B786FF0800202EA08
:100CD000C31C02460CF1804000F5B910D06003F04F
:100CE00001005070EFF3108E4FF0010C8CF3108860
:100CF00008781423A3EB500044F20C03C4F2080359
:100D00001C680CFA00F024EA0000186018688EF3E2
:100D10001088EFF3108E8CF310887F20D3685478FE
:100D200093F804C0002C08BF6FF0400000EA0C00EC
:100D300018718EF310884868D4680379DB016371F9
:100D4000B0F801001081087844F200311070C4F24C
:100D500041410020516010BDF0B581B00446007AD9
:100D6000002844D0E0686178002230F8115020F863
:100D70001120EFF31080012686F31088E168627875
:100D80000B79002A4FF07F0208BF6FF040024FF04E
:100D90007F0702EA03020A71E1686FF07F020B7FAE
:100DA00008BF402213430B77E1680B7A13430B72A1
:100DB000E1680B791A430A7180F31088042001213D
:100DC000FFF733FFEFF3108086F31088E168627855
:100DD0000B7F002A08BF6FF0400703EA07020A777B
:100DE00080F31088E068617820F8115026E0012037
:100DF000EFF3108180F310887F27E0686278037931
:100E0000002A08BF6FF040076FF07F0603EA070370
:100E100008BF40260371002AE2684FF00703607A9A
:100E200008BF0623157F984005EA0703184310778B
:100E3000E06802793243027181F31088002001B02A
:100E4000F0BD0121EFF3108C81F310887F22C1687F
:100E500040780B79002808BF6FF0400203EA0200D7
:100E600008718CF3108800207047C2684378002016
:100E700022F8131070478446C0E905130020CCF80F
:100E80001C20704710B542684EF2801E5169136AEB
:100E900040F2FC2C0029CEF2000EC2F2000C0ED45F
:100EA00001F01F02012404FA02F24C094EF824203A
:100EB000BFF34F8FBFF36F8F00224CF82120996B47
:100EC00000290ED401F01F02012404FA02F24C0999
:100ED0004EF82420BFF34F8FBFF36F8F00224CF8E2
:100EE0002120D96B00290ED401F01F02012404FA3D
:100EF00002F24C094EF82420BFF34F8FBFF36F8FDF
:100F000000224CF82120D96C89B1496800290ED4FF
:100F100001F01F02012303FA02F24B094EF82320CD
:100F2000BFF34F8FBFF36F8F00224CF82120D0E921
:100F3000022300210160936082680020516310BD8C
:100F40008068013900EB82020020D164704781681B
:100F50004FF000420A6181684A6181688A61816854
:100F600000224A62816800208A6270472DE9F041C0
:100F700082B004460020164601904FF0FF3002F088
:100F8000030700906A4620463346884602F0C9F8B7
:100F9000A268156B0198C0B90423310758BF02231A
:100FA000DDF800C0B10703D4D91902EB810108E0D4
:100FB00002EB830143F00102C1F84CC0A16801EBD0
:100FC000820101F14C02C2F800C0710604D5A1688B
:100FD0000A6C42F480020A64012F25F4403118BFE4
:100FE00041EA0045022E07D130B16A46204641460B
:100FF000012302F096F8019825F04071002F18BFE8
:1010000041EA0065A16800200D6302B0BDE8F081EF
:1010100080B54168D0F808E0096AD1E904C38A695B
:1010200042F0004243F00043CEF8143083689A61E6
:1010300082684CF000431361CA6983685A62096A86
:1010400082680020916280BDD0E90102536E006881
:10105000042838BF01338B60D06A4EF22002C4F2FC
:1010600001021268C0F3C35C40F25400C2F20000F7
:10107000C2F30263006802F007029840D04020FAF1
:101080000CF04860012200200A6070472DE9F0430F
:1010900083B00D46097C044600220123092988BF3C
:1010A000012203FA01F122612A7CE16049F2000188
:1010B000C4F2160101EB02220020C4E90152D5E975
:1010C00006272E6AC4E9052044F21002E761C1F840
:1010D000003BEFF3108183F31088C4F20802136819
:1010E00023F000431360126881F31088217B090705
:1010F0000FD04AF20203EFF31082012181F310882E
:10110000C4F21603A1891F8827EA0101198082F31E
:101110001088A1684FF425420A60A1680023C862C4
:10112000A168C863A1688864A9682A68C905032AF8
:1011300008BF01F58031042A38BF0123032A88BF84
:1011400041EA0241A2686F68D162A1684FF0004293
:101150000A61A1684A61A1688A61A1684862A168C0
:101160008862716AA268D161B16AA2681162A168DD
:10117000FA1A8A66A1684A662968D6F850800190F2
:101180004FF0FF30012900900ED031B968684FF060
:10119000FF3101EB5000009006E0E9686A46204606
:1011A000002301F0BEFF0098A1684865A16888652A
:1011B0002968042903D3A168C865A1680866316D50
:1011C000DDF804C079BB317899B12A687168022AC8
:1011D00001D1092206E001D9032203E009220029F6
:1011E00008BF062248EA811343EA0111114341F482
:1011F0008078317AB9B12A68F168022A02D14FF4B5
:10120000102209E002D94FF4403205E04FF41022D9
:10121000002908BF4FF4C02248EA815343EA015134
:10122000114341F080786168096A91F84820D3073A
:1012300005D00A6CA368013ADA6491F84820920755
:1012400003D5496CA26801391165297C092902D8A6
:10125000A16800224A64F76C4FEA0C415FB1D7E9FC
:101260000223287C1206092842EA037234D87869DE
:1012700050B101230CE0A06800228263A068C0F88E
:101280008820306DC0BB31E0BB69002B18BF012343
:10129000A068C0F888307869A368C3F88C00287CFF
:1012A000092819D8B869A368C3F89000D7E909E3F9
:1012B000F86A1B0243EA8E1343EA0030A3685864BD
:1012C000D7F81CE0A368D7F81090C3F870E03B6A29
:1012D000A06842EA0942C367A0688263306D58B9CA
:1012E000D7E90C0248EA402040EA4268D6E90B02FE
:1012F00048EA403040EA427896F84800A268002860
:101300004FF4A00008BF4FF4AA0010642A6841EA15
:101310000C60012A04D1A1680022CA64A1680A6590
:10132000A16840F00302C1F83480A16840F00100D8
:101330000A63A16822460863D4E90201C1606869B2
:10134000697C02F0FFFDB06B96F83410224602F083
:10135000F9FDF06B96F83510224602F0F3FD27B147
:1013600078683978224602F0EDFD45F25401C0F26A
:1013700047010020216003B0BDE8F0834268836824
:101380001268042A0A4638BF013A9A6643681B6805
:101390003BB94FF0FF3303EB510183685965836814
:1013A00099658168CB6ADB0707D14A6681684FF48B
:1013B000AA020A64D0E90210C86000207047D0E990
:1013C00002120020CA607047D0E9021200204A6071
:1013D00070478068C26A02F001024A60826C002095
:1013E0000A607047D0E9021200208A607047D0F886
:1013F00018C0DCF810000CEB800040680068FFF7B4
:101400003ABD0000B0B5044661682269002001259C
:1014100020608A60A06950F825000068FFF732FD5F
:101420000135042DF6D10020B0BD000010B500F14B
:10143000040C002351F823E05CF82320C2F854E0A8
:1014400051F823E05CF82320C2F858E04269022AF0
:1014500005D08269526852681268062A0BD101EBE6
:1014600083025CF82340D2F80CE0C4F85CE0D26858
:101470005CF8234022660133032B04BF002010BD1B
:10148000D8E7000070B50D460446012655F8261031
:10149000D1E90001FFF7FAFD55F826002968006838
:1014A0000229806844F8260003D1016C41F4202110
:1014B00001640136042EE9D168692968206145F28A
:1014C0003340C4F2507020600020A561616170BD9E
:1014D000416802690020CA607047416802690020C3
:1014E0004A6070474168026900208A60704701467F
:1014F000002200200A60704780B545F25422C5F2F0
:101500004F020260084602F049FD002080BDB0B5E0
:1015100040F2EC15EFF3108C012080F31088C2F23A
:1015200000052B684BB94FF60C5EC4F2010E002388
:101530008EF8003040238EF800302B68D00303F182
:1015400001032B608CF310884FF6000C4FEA112337
:10155000C4F2010CC9B20BD50CEB831050F821403A
:1015600024F4803440F8214022F4803440F82140B3
:101570000CEB831040F82120EFF31081012080F361
:101580001088286810B1286801382860286838B9A0
:101590004FF60C50C4F2010000220270802202704B
:1015A00081F310880020B0BD4FF4FF5000EAD10055
:1015B0004FF20403C4F20103C058C9B2C043000C87
:1015C000C84001218143002011607047C8B24FF02C
:1015D000010C4FF4FF5303EAD1010CFA00F04FF273
:1015E0000C0CC4F2010C51F80C30012A614403D1F7
:1015F00023EA0042024303E023EA000242EA0042F7
:1016000000200A6070476FF03F0000EA9100C9B205
:1016100000EB81004FF60001C4F201014058C0F315
:101620004001002011607047C8B2012303FA00F0A6
:1016300083B2002A08BF03044FF4FF5000EAD1012F
:101640004FF20802C4F2010200208B50704780B5AF
:10165000084602F0A3FC002080BD80B54FF4FF5087
:1016600000EAD1014FF2000CC4F2010C51F80CE079
:1016700003EA020040EA0E0062EA03020240002090
:1016800041F80C2080BD4FF4FF5000EAD1004FF22A
:101690000401C4F201014058010C00201180704780
:1016A00003EA020023EA020240EA02424FF4FF503A
:1016B00000EAD1014FF20C03C4F201030020CA502A
:1016C00070474FF4FF5000EAD1004FF20401C4F21A
:1016D0000101415800201180704703EA020023EA0B
:1016E000020240EA02424FF4FF5000EAD1014FF2F9
:1016F0000803C4F201030020CA5070478A0701D4CE
:10170000062212E0026A936823F440139360026A8F
:10171000936C5B00FCD5936823F010039360026A1E
:10172000137FDB06FCD400220261C9071CBF002224
:10173000826110467047026A4FF6EE73D2F808C015
:10174000CFF6CE7303EA0C0393600022C2600968EF
:10175000026A2CF440131161016A00208B6070470B
:101760008446C0E909130020CCF82C207047000003
:1017700080B5416844F64212C5F24332914263D1CA
:10178000016A8A6822F440128A60016A8A6822F03B
:1017900010028A60016A00BF0A7FD206FCD4C169C8
:1017A0004EF2801CCA69012102F01F0301FA03F303
:1017B0005209CEF2000C4CF82230BFF34F8FBFF32A
:1017C0006F8FC269526A02F01F0301FA03F35209D4
:1017D0004CF82230BFF34F8FBFF36F8F026A9368CC
:1017E00023F480339360C269526902F01F0301FA47
:1017F00003F352094CF82230BFF34F8FBFF36F8FC2
:10180000C269D26A02F01F0301FA03F352094CF8CD
:101810002230BFF34F8FBFF36F8FEFF3108E81F342
:10182000108844F20403C169C4F2080309784FF038
:10183000004C1A682CFA01F11143196019688EF3F3
:1018400010880021416000E00721084680BD4FF06C
:10185000FF3200200A604A60704700002DE9F0471F
:101860000B78024648F20000C4F2110000EB03209E
:101870008B6BD1F840C0C2E908039078CB6B20F0A5
:101880000300461C96704E68D3624FF0000313703D
:10189000D161936216B940F002009070CF6A4EF2A7
:1018A000001E07F01F034FF00108CEF2000E08FAE9
:1018B00003F37E090EF1800491F8285044F8263095
:1018C000BFF34F8F46F2003AC4F2000ABFF36F8FA6
:1018D0005AF82760280126F480364AF827600EF56A
:1018E00040755AF82760E855486940F2FC2900F035
:1018F0001F06C2F2000908FA06F6430949F8272034
:101900000F7C44F82360BFF34F8FBFF36F8F5AF8FB
:1019100020303E0123F480334AF820305AF820303A
:101920002E5449F82020C8690B7E00F01F0608FAE3
:1019300006F6470944F82760BFF34F8FBFF36F8F58
:101940005AF820601B0126F480364AF820605AF8C5
:1019500020602B5449F82020486A91F8203000F08C
:101960001F0608FA06F6470944F82760BFF34F8FB1
:10197000BFF36F8F5AF820401B0124F480344AF8DB
:1019800020405AF820402B5449F82020EFF31080D3
:1019900088F3108844F204050B78C4F208054FF070
:1019A00000442E6824FA03F326EA03032B602B6815
:1019B00080F310884FF48063106A8360086CCD68F0
:1019C000D0E900674FF48043D1F8049003EA8533EF
:1019D000C46907F0010569F3092343EAC53304F03C
:1019E000010443EA445306F0030443EA0463146A1F
:1019F00003F58053D0F80C806361056825F001037E
:101A0000022B07D14FF60474CFF60074022D08BFE5
:101A1000203401E0D8F80040136A4FF440761C618E
:101A200083698D68846803F00303022D08BF4FF4B7
:101A3000807604F00104002D18BF334443EA047398
:101A4000146A3033E360136A00249C610B7801212F
:101A500001FA03F340F21F252B4204D0136A00253C
:101A6000C1F61F755D62036A90F8245090F8250056
:101A700003F0010365F30C2300F01F0043EA00406C
:101A8000136A1863C2E90544C2E90344DCF8140090
:101A9000136A90601020C9F607509866D0694069B3
:101AA0005AF82030470923F480334AF820305AF896
:101AB000203000F01F0301FA03F30EF5C070BFF3EE
:101AC0005F8F40F827304EF82730D369DB6A5AF829
:101AD000237027F480374AF823705AF8237003F0F4
:101AE0001F0701FA07F75B09BFF35F8F40F8237008
:101AF0004EF82370D369DB695AF8237027F48037D6
:101B00004AF823705AF8237003F01F0701FA07F709
:101B10005B09BFF35F8F40F823704EF82370D369E1
:101B20005B6A5AF8237027F480374AF823705AF812
:101B3000237003F01F07B9405B09BFF35F8F40F8C4
:101B400023104EF8231040F21141106AC0F2010137
:101B50008160106A017FC907FCD044F64211C5F2CA
:101B6000433100205160BDE8F08703464161002009
:101B70009A617047024680690860002100209161E7
:101B80007047000080B5D0F820E0DEF808C02CF4E3
:101B90004013CEF80830D0F820C000BFDCF8483041
:101BA0005B00FBD5DCF8083023F01003CCF80830DC
:101BB000D0F820C09CF81C30DB06FBD4C0E903122F
:101BC000DCF8080040F010110020CCF8081080BDAF
:101BD00000F022F802F0B7F8FEE740F2EC50C2F253
:101BE000000001680131016070474EF22000C4F22C
:101BF00001008179006840F2F052C2F20002C0F3A5
:101C0000026052F8211021FA00F040F25401C2F2B1
:101C1000000108607047000070B54EF60850CEF223
:101C200000004FF4700140F20005C0F88010C0F2CF
:101C3000000544F208010560EFF31080012484F3ED
:101C40001088C4F208010A6822F480120A60096848
:101C500080F310880020FFF70CF800F0CFFD012082
:101C6000FFF707F8286840F29C51A0F5806080F3E8
:101C70000A8840F25400C2F20000C0F20001FEF7F0
:101C8000B8FA40F2000045F2A44140F25402C2F218
:101C90000000C0F20001C0F20002FEF791FA40F22B
:101CA000C01540F2C010C0F20005C0F20000401B99
:101CB000C11700EB91708110012909DB2E46C8BFC6
:101CC000841000BF56F8040B28448047013CF9D12A
:101CD000FFF78BFF0320FEF758FF4FF6305100202F
:101CE000C4F201014FF6FF7221F8202001301028C4
:101CF000FAD10320FEF770FF0320FEF746FF042011
:101D0000C4F20E000021016041608160C1600320C7
:101D1000FEF762FF0220FEF7ACFF00F0F9FD0020A5
:101D2000BDE8704000F0F3BD00BE00BFFEE700005C
:101D30002DE9F04180468069012852D1D8F804008D
:101D400008B1BDE8F08144F22470C0F200000568DB
:101D500044F2FC6440F258060027C0F20004C2F2CC
:101D6000000600BF54F81710F01900F1B002284621
:101D7000FEF775FD0237102FF4D1B6F8B000B6F8B3
:101D8000B2103080B181B6F8B400B6F8B610308326
:101D9000A6F85010B6F8B800B6F8BA10A6F85C006D
:101DA000B185B6F8BC00B6F8BE103087A6F844106E
:101DB00000F0D4FB01F07EF900F0A2FF40F2924067
:101DC000C2F20000408902F037F800F0DAFF01F0BB
:101DD000A1FC01F0E5FD01F087FB02F02BFBD8F838
:101DE00018000228ADD1D8F804000028A9D144F287
:101DF0002470C0F20000046844F2C86740F258053D
:101E00000026C0F20007C2F2000500BF57F8161006
:101E1000A81900F1C0022046FEF721FD0236062E69
:101E2000F4D1B5F8C000B5F8C410A5F88C00B5F829
:101E3000C200B5F8A020A5F8A400D5F89C00A5F82C
:101E400098100844511C8AB2C5F89C00102AA5F8C5
:101E5000A010FFF476AFC0F38D11B5F8A2200009F1
:101E600001EB5201A5F89A0001EB92010022A5F8BE
:101E7000A020A5F8A210C5F89C20BDE8F08110B5FF
:101E800082B0FF20009000200121002200230124C5
:101E900000F073FA40F65451C4F217010C6046F298
:101EA0000031C4F2000151F8202022F4803241F8C0
:101EB000202051F8200002B010BD10B582B0FF20E4
:101EC00000900020022100220023022400F055FA95
:101ED00040F65451C4F217010C6046F20031C4F2CE
:101EE000000151F8202022F4803241F8202051F8DE
:101EF000200002B010BD10B582B0FF20009000207D
:101F0000042100220023042400F037FA40F6545143
:101F1000C4F217010C6046F20031C4F2000151F81E
:101F2000202022F4803241F8202051F8200002B015
:101F300010BD10B582B0FF200090002008210022C3
:101F40000023082400F019FA40F65451C4F2170196
:101F50000C6046F20031C4F2000151F8202022F456
:101F6000803241F8202051F8200002B010BD10B599
:101F700082B0FF20009000201021002200231024B6
:101F800000F0FBF940F65451C4F217010C6046F220
:101F90000031C4F2000151F8202022F4803241F8CF
:101FA000202051F8200002B010BDB0B582B040F63C
:101FB0005055C4F217052868012100F4F07090FA1A
:101FC000A0F0B0FA80F001FA00F41F2888BF0024C6
:101FD0004FF0FF0C0020214600220023CDF800C066
:101FE00000F0CBF946F200316C60C4F2000151F808
:101FF000202022F4803241F8202051F8200002B045
:10200000B0BD2DE9F04782B040F6004AC4F2170A8D
:10201000DAF888000724C007DAF8A00008BF032414
:10202000C00704D14FF000084FF0000904E0DAF8CF
:10203000A480DAF8B0900724EFF303806FF35F20F9
:10204000A0F1100640F2FC20C2F2000050F8265029
:10205000284600F04FFA032C04D1074628680528CB
:1020600003D20AE0062028600027FF252046002131
:1020700042464B46009500F080F90120CAF89C00CA
:1020800046F20030C4F2000050F8261021F48031EE
:1020900040F8261050F82600CAF8007002B0BDE8DB
:1020A000F0872DE9F04782B040F6004AC4F2170AE3
:1020B000DAF8880007248007DAF8A00058BF032464
:1020C000800704D44FF000084FF0000904E0DAF86C
:1020D000A480DAF8B0900724EFF303806FF35F2059
:1020E000A0F1100640F2FC20C2F2000050F8265089
:1020F000284600F0FFF9032C04D10746286805287C
:1021000003D20AE0062028600027FF252046002190
:1021100042464B46009500F030F90220CAF89C0078
:1021200046F20030C4F2000050F8261021F480314D
:1021300040F8261050F82600CAF8007002B0BDE83A
:10214000F08710B582B00124062000210022002370
:10215000009400F012F940F68C41C4F217010C60B3
:1021600046F20031C4F2000151F8202022F48032FE
:1021700041F8202051F8200002B010BD10B582B007
:1021800002240620002100220023009400F0F5F82C
:1021900040F68C41C4F217010C6046F20031C4F2E3
:1021A000000151F8202022F4803241F8202051F81B
:1021B000200002B010BD70B582B040F6F045C4F208
:1021C00017056E684FF0FF0C34466FF35F240A204A
:1021D000214600220023CDF800C000F0CEF82C608C
:1021E000A96866F30801A96046F20031C4F2000153
:1021F00051F8202022F4803241F8202051F82000AC
:1022000002B070BD80B582B04FF0FF0C09200121F3
:1022100000220023CDF800C000F0AFF846F20031F4
:10222000C4F2000151F8202022F4803241F820202D
:1022300051F8200002B080BD80B582B04FF0FF0C95
:102240000920022100220023CDF800C000F095F8FB
:1022500046F20031C4F2000151F8202022F480320D
:1022600041F8202051F8200002B080BD80B582B036
:102270004FF0FF0C0920042100220023CDF800C0FC
:1022800000F07BF846F20031C4F2000151F8202042
:1022900022F4803241F8202051F8200002B080BDA5
:1022A00080B582B04FF0FF0C0920082100220023E6
:1022B000CDF800C000F061F846F20031C4F2000130
:1022C00051F8202022F4803241F8202051F82000DB
:1022D00002B080BD80B582B04FF0FF0C0920102104
:1022E00000220023CDF800C000F047F846F200318C
:1022F000C4F2000151F8202022F4803241F820205D
:1023000051F8200002B080BD80B582B040F6F440A4
:10231000C4F2170000684FF4F07101EA10414FF069
:10232000FF0C092000220023CDF800C000F025F8A2
:1023300046F20031C4F2000151F8202022F480322C
:1023400041F8202051F8200002B080BD40F608413D
:10235000C4F2170100220A60C06810B101388A6F08
:10236000FCD1886F40B140F201108865886F8A6F98
:1023700040EA5200C007F9D170472DE9F04190B012
:10238000EFF3038640F2FC256FF35F26103EC2F2A6
:10239000000555F826506C69002C41D00190FF20B3
:1023A0000DF10C0E06918EE80D00D5E90601DDF861
:1023B00058C002915FFA8CF1ADF8001000B390E8BC
:1023C0001E50D0E90678089109920A930B94CDF833
:1023D00030C00E97DDE900C2DDE90237DDE9041403
:1023E000CDF834E0C0E900C2C0E90237C0E9041406
:1023F000DDE90621CDF83C80C0E906216C6900E0EA
:102400006846A047A86958B1DDE90C54DDE90ECE55
:1024100008AF8ECFC0E9045480E88E00C0E906CE34
:10242000304610B0BDE8F081F0B581B040F62857D5
:10243000C4F217073C687D683E694FF0FF0C082026
:1024400021462A463346CDF800C0FFF796FF46F2F4
:1024500000317C61BD617E62C4F2000151F8202030
:1024600022F4803241F8202051F8200001B0F0BD64
:10247000F0B581B040F6A446C4F217063468F5689A
:1024800001270720002122462B460097FFF775FF02
:1024900046F20031746135623761C4F2000151F8CF
:1024A000202022F4803241F8202051F8200001B091
:1024B000F0BDF0B581B040F6A446C4F2170634680A
:1024C000F56802270720002122462B460097FFF7D8
:1024D00054FF46F20031746135623761C4F2000185
:1024E00051F8202022F4803241F8202051F82000B9
:1024F00001B0F0BD014640F68C40C4F21700032243
:10250000026082626FF06042C26240F2E712826350
:102510000A68052A07D805A050F8223009A050F80B
:1025200022001A4600E000200A6070470100000007
:10253000020000000300000004000000050000008D
:10254000050000000300000000030000040000007C
:1025500000040000000000000000000070B540F220
:10256000305CC2F2000C9CF8050000B170BD40F276
:102570005801C2F2000108884A680D691318888959
:10258000CC6905EB000E088B40F2D056C2F2000673
:1025900020440A898C8A0D8CB689013201340135B8
:1025A000002E4B60C1F810E0C8610A818C820D8456
:1025B000DCD192B2B3FBF2F2ABB28A84A2B2B0FB2E
:1025C000F3F0BEFBF2F20885002048600861C861A4
:1025D0000881888208840120CA848CF8050070BDB7
:1025E000F5EE400AF1EE10FA23DD80EE200AB7EE98
:1025F000002AB0EEC01AB4EE421AF1EE10FA46DD2F
:1026000082EE011A9FED792A44F2D4622021C0F2B1
:10261000000200BF531821EE022A93ED003A04395C
:1026200032EE032A0B1DF5D19FED711A31EE422ACD
:102630003EE0F5EE400AF1EE10FA45DAB5EE400A5A
:10264000F1EE10FA4FDD80EE200AB7EE002AB0EE70
:10265000C01AB4EE421AF1EE10FA79DD82EE011AD8
:102660009FED622A44F2D4622021C0F2000200BF32
:10267000531821EE022A93ED003A043932EE032A70
:102680000B1DF5D19FED5A1A31EE422A72E09FEDF3
:10269000572A44F2D4622021C0F20002531821EEDE
:1026A000022A93ED003A043932EE032A0B1DF5D1CC
:1026B000B5EE400AB1EE420AF1EE10FAB8BFB0EE44
:1026C000402A80ED002A8EE0F5EE400AF1EE10FA85
:1026D0003BD1B5EE400AF1EE10FA2CDD40F6DB718D
:1026E000C3F6C9715DE0B5EE400AF1EE10FA4DDABD
:1026F00080EE200AB7EE002AB0EEC01AB4EE421AFD
:10270000F1EE10FA4FDD82EE011A9FED382A44F205
:10271000D4622021C0F20002531821EE022A93ED68
:10272000003A043932EE032A0B1DF5D19FED301A21
:1027300031EE422A48E0B5EE400AF1EE10FA04DA32
:1027400040F6DB71CBF6C9712BE06FF003007047E8
:102750009FED262A44F2D4622021C0F2000200BF7D
:10276000531821EE022A93ED003A043932EE032A7F
:102770000B1DF5D1B5EE400AB1EE420AF1EE10FAAA
:10278000B8BFB0EE402A9FED1C0A28E010EE101AE8
:10279000B1F1FF3F40F6DB71CCBFC4F24901CCF28E
:1027A000490101601FE09FED112A44F2D46220210B
:1027B000C0F20002531821EE022A93ED003A0439C8
:1027C00032EE032A0B1DF5D1B5EE400AB1EE420AF6
:1027D000F1EE10FAB8BFB0EE402A9FED060A32EED5
:1027E000000A80ED000A0020704700BFA59204BDDA
:1027F000DB0FC93FDB0F49C0DB0F494010B54EF27C
:10280000FE3CC4F2010C4AF203504CF20012ACF848
:102810000000C4F201020120908000BF90880028CF
:10282000FCD147F200010120C4F200011080886051
:10283000086040F2F05442F6005E41F20020C2F21D
:102840000004C0F2311E4FF40041C0F27A00C4E926
:1028500000E0C4E9021041F60040C0F64E6021617C
:102860004EF22001C4F20101606188790B6854F8CE
:102870002000C3F3026320FA03F340F25400C2F2D3
:102880000000036020238CF81530092381F8823082
:1028900000238B740B7F1B07FCD54FF46C530B810B
:1028A00000238B720B7F9B06FCD50123137741F22B
:1028B0002122C2F202020A6005228A718A790B681B
:1028C00054F82220C3F30263DA40026091F8550005
:1028D00040F0400081F8550091F95500B0F1FF3FFC
:1028E000FADC012081F84D00C52081F8550091F8EF
:1028F000550000F0BF0081F8550000BF91F9550068
:102900000028FBD44FF42540ACF8000010BD704700
:10291000F0B583B048F248070320C4F20007FEF781
:1029200034F96FF0FF0038604FF0FF3044F6B844E0
:102930000290CDE9000000210122C0F200046846A7
:1029400054F821304BB14B0901F01F0550F82360BA
:1029500002FA05F5AE4340F8236001316029EFD15A
:102960004EF280320021CEF2000200BF50F821303A
:1029700007EB8106B36242F8213001310329F5D11A
:102980000320FEF729F946F200310020C4F20001CD
:1029900054F820200AB141F820200130602804BFFB
:1029A00003B0F0BDF4E701380028FCD17047000007
:1029B00010B52DED028B82B040F27E40C2F20000D5
:1029C000B0F90E109FED458A01FB01F24CF65B71E8
:1029D000CFF6FF71A1EB9231920B89B200EE101A83
:1029E00047F23331B8EE401A9FED3B0A418221EEA7
:1029F000001AB1EEC11A018A21EE081A0CB2BDEE1E
:102A0000C11A11EE103AB4EB530F4FEA530302DC34
:102A10005B429C4201DA1946038211FB01F302EB8F
:102A2000933292B201EE102AB8EEC11A21EE000ADA
:102A3000B5EE400AF1EE10FA01DA002208E0B1EE3C
:102A4000C00A018A20EE080ABDEEC00A10EE102A64
:102A500040F29244C2F200040B0422800DD0B0F97F
:102A60000E0082B24AB140F23053C2F200031B7929
:102A70002BB1012B2BD1404202E0002026E010B206
:102A800000EE100A08B2B8EEC00A02EE100A9FED7E
:102A9000141AB8EEC22A20EE010A62EE010A01A859
:102AA000FFF79EFD9DED010A9FED0E1A80EE010AD3
:102AB0009FED0D1A20EE010A9FED0C1A80EE010A1F
:102AC00020EE080ABDEEC00A10EE100A608202B0C5
:102AD000BDEC028B10BD00BF0000803700008047B6
:102AE00000000038DB0F4940000034430000B443CD
:102AF00040F29240C2F2000040F24051C2F20001A6
:102B0000428C8988B2F5804F01D2012307E0B2F5EB
:102B1000804F02D14FF4804203E04FF6FF731A4416
:102B2000428440F23053C2F200031B791BB1012BE7
:102B300003D1891A00E0114441814CF20000CFF624
:102B4000FF7010FA82F0B0FA80F040097047F0B5DB
:102B50000146C08A0A8B801A0A880FFA80FE888193
:102B600002FB0EF24FEA224C130C6446CB8000238A
:102B7000B2F1FF3FC8BFA3EB2244B1F912504E8817
:102B80000F6A2C4406FB0E772604A3EB0443CE61A8
:102B9000B7EB044FC8BF27049F42B8BF1F46CB897D
:102BA0008C88C31A1BB20F623E0C04FB03F30CEBC0
:102BB0002747C88107EB23406F420E8106EB124284
:102BC000B842A8BF02EB134738B21A0C4A810F82F1
:102BD000F0BD000010B52DED028B82B040F27E40BA
:102BE000C2F20000B0F90E104CF65B7201FB01F16D
:102BF000CFF6FF72A2EB91329FED3D8A92B2890B24
:102C000000EE102A47F23332B8EE401A9FED370A31
:102C1000428221EE001AB1EEC11AB0F9102021EE65
:102C2000081A40F29244BDEEC11AC2F2000411EE3D
:102C3000103AB2EB530F4FEA5303C4BF03821A4654
:102C40005B429A42BCBF03821A4602FB02F201EBCE
:102C5000923189B201EE101AB8EE411A21EE000A43
:102C6000B1EEC00A018A20EE080ABDEEC00A10EEDD
:102C7000102A2280E1B1C089D0B100B29FED1D1AA7
:102C800000EE100A08B2B8EEC00A02EE100A40F2D6
:102C90003050B8EEC22AC2F20000007920EE010ADC
:102CA00062EE010A30B101281CD1B1EE400A05E004
:102CB000002016E0B1EE400AF1EE600A01A8FFF72D
:102CC0008FFC9DED010A9FED0C1A20EE010A9FED8D
:102CD0000B1A80EE010A20EE080ABDEEC00A10EEC3
:102CE000100A608202B0BDEC028B10BD000080377C
:102CF0000000804700000038E02E65420000B44329
:102D000040F27E40C2F20000B0F90010B0F902209B
:102D100049F2CD3C01FB0CF302FB0CF2C18003EB4A
:102D20004202120C0281704780B582B0EFF303803B
:102D30006FF03F016FF35F2001EB800040F2FC2158
:102D400046F20032C2F20001C4F200020958835870
:102D500023F4803383508058486801780191D0E98A
:102D6000082168460091904702B080BD406800B1DC
:102D7000704740F22010C2F200000168013101608A
:102D8000704710B540F27E44C2F2000440F2E840C1
:102D900062890021C2F20000C182028301F06BFA55
:102DA000A189E08140F20C50C2F20000018301F0E1
:102DB00062FA208210BD000040F23050C2F20000E2
:102DC0000021417140F2D051C2F2000144F620626C
:102DD0008A8100BF41790029FCD0704710B540F2CC
:102DE0002414C2F2000444F23471C0F200012046FF
:102DF000FDF728FC44F64811C0F200012046FDF71B
:102E00005DFD20460321BDE81040FDF787BE10B5EB
:102E100044F6BC30C0F20000D0E900412046FDF786
:102E2000A4FA2046BDE81040FDF709BBF0B581B01B
:102E300044F60840C0F20000D0E900412046FDF70A
:102E400042FF44F62840C0F20000D0E90051284675
:102E5000FDF739FF44F64840C0F20000D0E90061B8
:102E60003046FDF730FF44F66840C0F20000D0E97C
:102E700000713846FDF727FF2046FDF76DFF284615
:102E8000FDF76AFF3046FDF767FF384601B0BDE841
:102E9000F040FDF761BF10B545F2D800C0F2000068
:102EA000D0E900412046FEF7F1F82046FEF78CFA03
:102EB00045F25C10C0F20000D0E900412046FEF768
:102EC000E5F82046FEF7A4F82046FEF77DFA45F225
:102ED000E010C0F20000D0E900412046FEF7D6F82D
:102EE0002046FEF795F82046BDE81040FEF76CBA84
:102EF00044F63861C0F20001D1E90001FEF7FCBAE6
:102F0000704710B544F63860C0F20000046840F61F
:102F1000085120460022FEF787FB204640F6095163
:102F20000022FEF781FB204640F60A510022FEF700
:102F30007BFB204640F60B510022BDE81040FEF717
:102F400073BB10B586B044F67860C0F20000D0E9DB
:102F500000412046FEF796FA2046FEF7BEFA40F6FC
:102F6000B830CDE9000002900020CDE903000590C3
:102F700069462046FEF75AFA06B010BD40F25400EA
:102F8000C2F20000006844F6D351C1F26201A0FB16
:102F900001014FF0FF3000EB91110020B0EB116FF9
:102FA00018BF70474EF21002CEF2000251604EF68A
:102FB0002351CEF20001F0230B70906007201060C7
:102FC0007047000080B540F2CC2045F2A421C2F247
:102FD0000000C0F20001FEF741FC00B980BD02A074
:102FE00007A12F22FEF7A0FE7265745F6572722042
:102FF0003D3D204653505F535543434553530000D6
:103000007372632F6472762F6472765F7561727467
:103010002E63000010B540F2CC24C2F200040A4630
:1030200001462046FEF7AEFD206A00BF816C4900D4
:10303000FCD510BD80B582B045F29821C0F20001E8
:103040000A68019001A910460122FEF79BFD40F29B
:10305000CC20C2F20000006A816C4900FCD50198C6
:1030600002B080BD4168022918BF7047806840F2F5
:103070000401C2F200010860012081F830007047AD
:10308000416802290CD0012918BF7047806840F2BE
:103090000401C2F200014860012081F8320070474B
:1030A000806840F20401C2F200018860012081F8CA
:1030B0003400704740F25800C2F20000B0F824C05B
:1030C0000288C38CACEB020281894FEAC20C40F249
:1030D000B852C2F20002591A038D008B1278181AE6
:1030E000531EC900052B4FEAC00211D8DFE803F0D8
:1030F0000B030307070D02EB0C00414208E001EB54
:103100000C00424204E0881800E05018C0F1000CA6
:1031100040F27E40C2F20000A0F800C041808280F0
:103120007047B0B5D0E9010EDEF8684000680428A9
:1031300038BF013439B18C4205D904282EBF116043
:10314000481E1060B0BD4FF0000C8C4288BF4FF09D
:10315000010C002918BF0121DEF83440DB0718BF3D
:10316000240C04F00C03043BB3FA83F35B0904F072
:10317000100E0125032888BF85EA1E1343EA0100CB
:10318000012806D183F0010050EA0C0001D0032091
:1031900000E002205060B0BD002000F068BE0120B9
:1031A00000F065BEFFF7A4FEFFF7ABFEFFF7E6FEFB
:1031B000FFF708FFFFF73AFEFFF76DFEFFF70EFE81
:1031C000FFF7BFFEFFF723FEFFF79AFE40F23050F5
:1031D000C2F2000001210171FFF7EEFD40F258003C
:1031E000C2F20000818CC28C038D07A001F092F91D
:1031F00000F022FB00F05CFB00F0B6F800F0C3FD2D
:1032000001F064F9F8E700BF69615F737461746984
:10321000635F6572726F723A2025640969625F7339
:1032200074617469635F6572726F723A2025640914
:1032300069635F7374617469635F6572726F723A18
:103240002025640D0A00000080B540F20400C2F29F
:1032500000004021FCF7CDFF80BD80B540F27C41ED
:10326000C2F200010878B0FA80F0420944F63860F2
:10327000C0F2000000680A7040F60C51FEF7D4F965
:1032800040F20400C2F20000002180F8301080F803
:10329000321080F8341080BDB0B540F2E844C2F27C
:1032A000000420462421FCF7A4FF40F20C55C2F292
:1032B000000528462421FCF79CFF47F6FF70C1F269
:1032C0007070002147F6FF722060A1806282286042
:1032D000A9806A82B0BD0000024600284FF00000BD
:1032E00018BF002900D1704780B582B000EE102AC7
:1032F00002EE101AB8EEC00A9FED171AB8EEC22AF5
:1033000060EE010A22EE010A01A8FFF769F99DEDBE
:10331000011A9FED120AB4EE401AF1EE10FA0ADB20
:103320009FED0F2AB0EE410AB4EE421AF1EE10FA08
:10333000C8BFB0EE420A9FED0A1A80EE010A9FED67
:10334000091A20EE010ABDEEC00A10EE100A02B002
:10335000BDE88040704700BF00000038DB0F49C067
:10336000DB0F494000FEFF4640F25800C2F2000069
:10337000B0F89A0040F62821000180B200FB01F06D
:10338000010CB0F17A7F38BF002140F29240C2F2C6
:103390000000C182704740F2D051C2F20001C888DB
:1033A00000B1704740F29240C2F200000A22438B03
:1033B000CA80028C591D0A4493B2418340F22221F3
:1033C0008B4238BF114640F23052C2F200021279ED
:1033D000C183018422B1012AE3D14289114401E071
:1033E0004289511A4181704740F23050C2F20000C8
:1033F00040F24051C2F2000100798A8840F2924CBA
:10340000C2F2000C20B1012809D1BCF80A3003E057
:10341000BCF80A1013460A46D11AACF8221040F242
:10342000D052C2F200021189D1B1BCF81E0040F2A4
:103430002221884226D3BCF8220042F6AB21401A52
:1034400042F6A92188421AD89CF82600411CCAB22B
:103450000020022A84BF012000218CF8261070472A
:103460006421118180B10128DFD140F20C50C2F2F9
:103470000000B0F91620012AD7DB511E0EE0002013
:103480008CF826000020704740F20C50C2F2000079
:10349000B0F91620B2F1FF3FC7DC511CC182C4E76E
:1034A00080B5FFF785FA40F23050C2F20000017992
:1034B00040F29240C2F2000039B101290CD1418999
:1034C000428A114401F5804104E04189428A891A07
:1034D000A1F58041018200E0018A008889B2BDE83F
:1034E000804000F0DDBB000010B540F23054C2F265
:1034F0000004206809281CD8DFE800F00509131C27
:10350000323C506A7C96BDE8104000F07BBC40F233
:10351000D050C2F20000C8214170BDE8104000F058
:1035200017BC40F2D050C2F200004178002900F0F0
:103530008D8010BD40F2D050C2F20000408808B922
:103540000420206040F29242C2F2000244F6CC40D5
:1035500010804FF4804344F6CC404FF4804170E03B
:103560000520206040F2D050C2F2000042F21071FB
:10357000818010BD40F2D050C2F20000808808B9AE
:103580000620206040F29242C2F2000244F6CC4093
:103590001080002344F6CC40002152E000F01DFCD6
:1035A00000F058F900F0DDFEFFF776FE07202060FE
:1035B000A08940F20C51C2F20001C88240F2924050
:1035C000C2F200000021C0F81E10C0F81A1010BD91
:1035D000FFF7E1FEFFF764FFFFF706FF0028A8D022
:1035E0000820206040F29240C2F200004FF47A714D
:1035F000C18210BDFFF7EEFA40F2D050C2F20000D7
:10360000418919B9C821418100F0BFFE207918B362
:1036100001282CD140F29240C2F200004189428A36
:10362000114401F5804120E040F29242C2F20002D2
:10363000118A4FF4804001F13203108099B24FF4A7
:1036400080401382BDE8104000F02ABB03212160B6
:1036500042F21071418010BD40F29240C2F200006F
:103660004189428A891AA1F58041018204E040F231
:103670009240C2F20000018A40F29240C2F2000081
:10368000008889B200F00CFBFFF732FA002808BF6F
:1036900010BD0120E07210BDB0B544F63860C0F234
:1036A0000000056840F2BC44C2F20004284640F61F
:1036B00005312246FDF7A7FF221D284640F60631B8
:1036C000FDF7A1FF04F10802284640F60731FDF797
:1036D0009AFF94E80700490041EA8000617B1043AB
:1036E000C2B2914220730AD04FF0FF3151FA80F1FB
:1036F000052988BFB0BD6073012084F82A00B0BDE1
:1037000047F6FF731B1A03FB02F211FB002040F384
:10371000CF3070472DE9F04381B040F27E41C2F2D4
:103720000001B1F806C040F26054B1F808E040F280
:103730009241C2F20004C2F20001B1F90630B4F9BC
:103740002400B4F91020B4F92A50181AB1F908105D
:10375000A381801AB4F92630B4F92860B4F9009036
:10376000B4F9127000FB05F0E181C91A19FB0600DB
:10377000C91BB4F9028001FB05F1C30B18FB06114C
:10378000A380CCEBD033B4F92E00CD0BB4F92C10C0
:103790001EB283B2A4F808C08E429C46A4F80AE088
:1037A000E58008DC4F42BE42A6BF00FB06F797FB50
:1037B000F1FCC3F1000CA5EB0E073EB2A4F820C04B
:1037C0008E4207DC4F42BE42A6BF06FB00F090FBD4
:1037D000F1F35B42B4F930000FFA8CF16384FFF728
:1037E0008FFFB4F93030B4F91220B4F92210A0825E
:1037F0001846FFF785FFB4F93030B4F91410B4F966
:103800001820E0821846FFF77BFFB4F93030B4F996
:103810001610B4F91A20A0831846FFF771FF6168EB
:103820006269236A2160A18BE08363622261218344
:10383000608301B0BDE8F08340F2605047F6591153
:10384000C2F20000C0F201118162AA21C7F2305118
:10385000C1627047B0B540F2BC44C2F2000400251A
:1038600004F110001421A581C4E90055A560FCF7FE
:10387000C0FC40F20110208540F20400C2F20000BA
:10388000806B84F82A508047FFF706FF207B44F2C4
:10389000BA61C0F2000140F2E85231F8100040F283
:1038A000E451C2F20002C2F2000115600860B0BD2E
:1038B00040F24050C2F200006621C1837047B0B5AB
:1038C00040F23050C2F20000007940F24055C2F29E
:1038D000000530B101280BD128886988AA89411ACE
:1038E00003E069882888AA89091A1144A98100E09F
:1038F0002888A97A6880481CC1B21329A87205D902
:10390000A9890020E980A881A87200E0E988B5F9BA
:103910000820B5F91E0009B2FFF7F2FE4EF660214D
:10392000B5F9142000FB01F19310090C03EB6202BE
:10393000002848BF0021B5F9163002EB91029C1017
:1039400004EB630314B2288103EBA403298398B228
:10395000AA8203EBD030EB8200B24008A883B0BD4E
:1039600080B540F26051C2F20001B1F91C00B1F91A
:103970001E10FFF7B1FC40F23051C2F200010A798B
:1039800040F24051012AC2F2000103D032B94FF493
:10399000404201E04FF4804202448A80088080BDAA
:1039A00080B5FFF7DDFFFFF78AFF40F24050C2F21B
:1039B0000000B0F9081042F63602B1F5247FB8BF16
:1039C00040F28F2189B2B0F9040001FB02F140F20C
:1039D0006052090CC2F20002118680BD10B586B09B
:1039E00040F2B851C2F200010A78013A052A34D8EF
:1039F000DFE802F00335628FBEF2CA88B1F902C077
:103A0000524213B26FF0010E002BD8BF00222CEAF5
:103A1000EC7341F2707C00FB0CF092B2000C9BB294
:103A200000FB02F200FB03F00EEAD2340EEAD03EB5
:103A3000000C04EB40000C81ACEB0000830803EBAE
:103A40005E02A1F80AE002EB54048B81CA81A0B2A5
:103A50000C824C828A82CB82ECE0488AEAE0B1F99F
:103A60000620B1F9043022EAE27241F2707C23EAC6
:103A7000E37300FB0CF092B2000C9BB200FB02F26D
:103A80006FF0010400FB03F004EAD23204EAD03301
:103A9000000C02EB40004B81ACEB0000840804EB0F
:103AA00053030A8103EB52028C8198B2CB810A82C4
:103AB0004B828A82CC82BDE08A88B1F902305242C0
:103AC00014B223EAE37341F2707C00FB0CF0002C8B
:103AD000D8BF00229BB2000C92B200FB03F36FF040
:103AE000010400FB02F004EAD33304EAD032000CF4
:103AF00003EB40004A81ACEB0000840804EB520267
:103B00000B81C0F38F0002EB53038C81CA810B82BF
:103B10002BE04A88B1F90640524213B241F2707C60
:103B2000002BD8BF002224EAE47300FB0CF092B211
:103B3000000C9BB200FB02F26FF0010400FB03F0EB
:103B400004EAD23204EAD033000C02EB40004B818D
:103B5000ACEB0000840804EB53030A8103EB520230
:103B6000C0F38F008C81CB810A824C828B8260E013
:103B70008A88CB8852420FFA82FE5B420FFA83FC9E
:103B8000BEF1000F4FF00004D8BF2246BCF1000F79
:103B9000C8BF1C4641F2707C00FB0CF092B2000CD6
:103BA000A4B200FB02F26FF0010300FB04F003EA91
:103BB000D23203EAD033000C02EB40004B81ACEB75
:103BC0000000840804EB53030A8103EB52028C814A
:103BD00098B2CB810A822AE04A88B1F90430524275
:103BE00014B223EAE37341F2707C00FB0CF0002C6A
:103BF000D8BF00229BB2000C92B200FB03F36FF01F
:103C0000010400FB02F004EAD33304EAD032000CD2
:103C100003EB40004A81ACEB0000840804EB520245
:103C20000B8102EB53038C8198B2CA810B824B82C9
:103C30008C82CA82EF289CBFF02048828A8AEF2AB1
:103C40009CBFF0228A82CB8AEF2B9CBFF023CB82D1
:103C5000B0F5256F84BF4FF425604882B2F5256F1B
:103C600084BF4FF425628A82B3F5256F84BF4FF479
:103C70002563CB8200210591CDE9031140F6B831CF
:103C8000081A0090881A019044F67860C0F200008B
:103C9000C91A006802916946FDF7C8FB06B010BD5D
:103CA00070B5044608460D4600F01DFB42F6AA23F7
:103CB00040F29246010C4FEA3042C2F200069D42A9
:103CC000F26001D2012217E045F25552954201D22D
:103CD000022211E02AB2B2F1FF3F01DD03220BE024
:103CE0004AF6AA22954201D2042205E04DF255532C
:103CF00006229D4238BF052240F2B855C2F20005A7
:103D000000B20BB269804DF6B45100FB01F05910BE
:103D10002A7001EB1042A1EB1040AA80E8802046F7
:103D2000FFF75CFED6F80200B6F90C10C6F80600E4
:103D3000B6F90E0001FB04F100FB04F0000C7080EA
:103D4000080CB08070BD80B5FFF72CFA002080BD54
:103D500080B586B040F23050C2F20000022101600E
:103D600000200590CDE9030044F67860C0F2000021
:103D700040F6B8310068CDE9001102916946FDF7BF
:103D800055FB06B080BD80B586B040F23050C2F21F
:103D9000000040F292410268C2F20001C98A32B1C9
:103DA000C9B9002101600591CDE9031106E091B187
:103DB0000121016000200590CDE9030044F6786000
:103DC000C0F2000040F6B831006800910191029104
:103DD0006946FDF72BFB06B080BD40F23050C2F2C1
:103DE00000000021C1800181C1728172817301795B
:103DF000012903D029B94FF4784101E04FF4006163
:103E00008181704780B586B040F23050C2F2000028
:103E10000021016044F67860C0F200000591CDE910
:103E2000031140F6B8310068CDE9001102916946EE
:103E3000FDF7FCFA06B080BD80B500F054FA40F200
:103E40007E4CC2F2000CBCF90620BCF9083012FB13
:103E500000F113FB101113FB00F3001400FB1230F0
:103E6000C90BC00BACF80A10ACF80C0080BDB0B5A3
:103E700084B0EFF3038146F200356FF35F21C4F2A3
:103E80000005103955F8212040F2FC2422F480323C
:103E900045F82120C2F2000455F8212054F82140B1
:103EA0006268136A93F8483023B14FF0000C4FF06A
:103EB000040E06E0A3684FF0010E03EB8003D3F875
:103EC0004CC01268012A22D1A2684FF0004313614E
:103ED000A2685361A2689361A26800235362A2683A
:103EE000936255F82120012322F4803245F82120E5
:103EF00055F8212001F01F0203FA02F24EF280234E
:103F0000BFF35F8F4909CEF2000343F821206369B4
:103F1000B3B1A169704431B1D1E900E28D68039574
:103F2000CDE901E200E001A94860E069C1F808C0FC
:103F3000086008469847A06910B101AB0ECB0EC0CF
:103F400004B0B0BD002828D44EF2001CCEF2000C04
:103F5000090100EB0C0383F8001340F2FC21C2F2CC
:103F6000000141F8202046F20031C4F2000151F86E
:103F70002020012322F4803241F8202051F8201023
:103F800000F01F02400903FA02F20CEB8003BFF3BA
:103F90005F8FC3F880214CF82020704770B540F245
:103FA000EC1CEFF31082012181F31088C2F2000CA7
:103FB000DCF8001039B94FF60C51C4F201010023AE
:103FC0000B7040230B70DCF800100131CCF80010AE
:103FD00082F31088018821B34FF6000E0022C4F24C
:103FE000010E00BF416801EBC20351F832105C685A
:103FF000CD034FEA1423E4B20BD50EEB831555F82D
:10400000246026F4803645F8246021F4803645F893
:1040100024600EEB8313013243F8241001888A4296
:10402000E0D30121EFF3108081F31088DCF8001059
:1040300021B1DCF800100139CCF80010DCF80010D8
:1040400039B94FF60C51C4F2010100220A708022E6
:104050000A7080F3108870BDB0B584B00446806AE1
:1040600040B1D0E900CED0E90253CDE900CECDE990
:10407000025300E06846E369D4F824C01B78E56A7F
:10408000C0E90032C0E90215E047A06A10B19DE81E
:104090002E002EC004B0B0BDF0B581B0EFF30380A8
:1040A00020246FF35F20A0F1100740F2FC20C2F241
:1040B000000050F8270010258178036A01F0030101
:1040C000022912BF197819686FF35F219A6C0826CC
:1040D00004EAD24405EA126506EA12622C4422443C
:1040E00035B19E6C402505EA5626324482F04002E6
:1040F0009E6E46F0C8569E66436A0BB1FFF7ACFF52
:1041000046F20030C4F2000050F8271021F480314C
:1041100040F8271050F8270001B0F0BD10B582B06C
:10412000EFF303806FF03F016FF35F2001EB80003E
:1041300046F20031C4F20001425822F4803242506B
:1041400040F2FC22C2F2000241581458A07800F05C
:104150000302206A022A12BF017801686FF35F210F
:10416000A069019198B1606901A9FCF729F8A078CC
:104170006169A26900F003000144101A6161A06145
:104180000BD1606A48B120460021012203E0606A39
:1041900018B120460422FFF75FFF02B010BD10B532
:1041A000EFF303804FF6EF736FF35F20A0F110047D
:1041B00040F2FC20C2F2000050F82400CFF6CF738A
:1041C000016A8A681A408A60416A19B10021022294
:1041D000FFF742FF46F20030C4F2000050F824100E
:1041E00021F4803140F8241050F8240010BDEFF382
:1041F00003806FF03F016FF35F2001EB800046F218
:104200000031C4F20001425822F48032425040F2A0
:10421000FC22C2F2000241581058C1694A6B016980
:10422000CAB9C9B1817801F00301022906D1C16878
:10423000026A098821F4DC41516003E0C168026A26
:10424000097811718178026901F00303D11AC268FB
:1042500001611A44C26069B9016A02238A6863F382
:1042600015528A60416A0022C26019B10021802281
:10427000FFF7F2BE7047B0B50146C08A0A8B4FF017
:10428000000C801A0A8803B2888102FB03F2488876
:104290001314B2F5803F03FB00F5A8BFACEB22433B
:1042A000B1F912000C6A034404EB25451CB24FEA35
:1042B000124EA1F806E0A542C8BF25466442A542B9
:1042C000B8BF254605EB12428B8213B20D628342C2
:1042D000C8BF024613B240428342B8BF024610B282
:1042E0000D810A82B0BDB0B501466FF35F214FEA80
:1042F000502241B345F2543E531CC0F2000E00F46C
:104300007E4003F07F0C3EF91250C0EB432002F1D7
:104310002003213203F07F0302F07F023EF91CC02C
:104320003EF912203EF91330ACEB0504D21A04FB1F
:1043300001F400B202FB01F194FBF0F291FBF0F109
:10434000A81819440AE045F25431C0F2000131F8CE
:104350001200203202F07F0231F81210C1EA004050
:10436000B0BD10B540F29454C2F20004204624219E
:10437000FBF73FFF44F20000C0F2640020602820F9
:10438000A08047F6FF70608210BDB0B540F2305596
:10439000C2F20005E87A00284BD040F29241C2F206
:1043A0000001C88A0A8B904205D9831A652B08DB65
:1043B00002F164000EE0131A652B07DBA2F1640022
:1043C00008E00A2BC8BF02F10A0003E00A2BC8BFAD
:1043D000A2F10A00088340F24051C2F2000140F20B
:1043E0009454C2F20004898BE08220462183FEF7B8
:1043F000AEFB287958B101281BD1B4F9100031283F
:1044000012DC40F20C50C2F20000322109E0B4F993
:104410001000312807DC40F20C50C2F200004FF6C9
:10442000CE71C182B0BD404240F20C51C2F20001D7
:10443000C882B0BD40F2D050C2F20000017809B18C
:1044400001390170417809B101394170418809B1E0
:1044500001394180818809B101398180C18809B160
:104460000139C180018909B101390181418909B14D
:1044700001394181818909B101398181C18909B13C
:104480000139C181018A09B1013901827047704740
:1044900080B582B04168042915D1816845F2982021
:1044A000C0F2000000688DF807100DF1070101222D
:1044B000FDF768FB40F2CC20C2F20000006A00BFAA
:1044C000816C4900FCD502B080BD000010B5C0B0C1
:1044D0006C4620464FF48071FBF78BFE40F2405053
:1044E000C2F20000B0F91C2006A1204600F022F81C
:1044F0002046FBF789FE01462046FEF78BFD40B0C3
:1045000010BD00BF6368616E6E656C733A202564F0
:104510000D0A00000FB4054B10B503A9044A029818
:1045200000F01CF810BC5DF814FB000035300000F2
:10453000000000200FB4084B10B504A902AA03988C
:1045400000F00CF8044602A9002000F0B1F8204663
:1045500010BC5DF814FB0000B14600002DE9FF4FD0
:1045600089B09B460446002506E025280BD05A4614
:104570000B999047641C6D1C20780028F5D10DB074
:104580002846BDE8F08F0027B8460122474900E0E1
:10459000074314F8013F203B02FA03F00842F7D129
:1045A00020782E2819D114F8010F47F004072A2883
:1045B0000ED06FF02F022078A0F1300109290CD81D
:1045C00008EB880102EB410100EB0108641CF2E7F3
:1045D0000A98641C50F8048B0A9020780028CED0EA
:1045E000642808D0692806D075281ED05A460B9931
:1045F00090476D1C58E00A994FF00A0901C90A91C9
:10460000002802DA40422D2102E0390504D52B2191
:104610008DF82010012103E0F90704D02021F7E7ED
:104620008A4608AE0DE00021FAE70A994FF00A0920
:1046300001C90A91F7E74946FBF7EDFD303106F86D
:10464000011D0028F7D1ADEB060000F12009780725
:1046500001D44FF00108C84502DDA8EB090000E0D5
:1046600000208046002706E008A85A46C05D0B9946
:1046700090476D1C7F1C5745F6DB04E030205A46FE
:104680000B9990476D1CB8F10001A8F10108F5DC09
:1046900005E016F8010B5A460B9990476D1CB9F1CD
:1046A0000001A9F10109F4DC641C65E70928010097
:1046B0000A68531C0B601070704700000000AAAA23
:1046C00055D55555AA2A00800800000009000000B1
:1046D00012000000000000000100803FC90CC0B7BC
:1046E000E565AABE435690BB3C695D3EEBFCA9BCA8
:1046F00008B732BEE745093EA59204BD010000009F
:104700000200000003000000110000000C00000087
:104710000D0000000E0000000F000000010002006C
:104720000800100024010020344700004849000020
:10473000344A0000FCFF0000000000000000000000
:104740000000000000000000DFFFFFFFDFFFFFFFB1
:1047500000000000FFFF0000311D0000000000000D
:10476000644700000000010000000100000001009B
:104770000000010000000000010101010101010130
:1047800000000000640003000000000000000000C2
:104790000001010000000000000000000000000017
:1047A0000000000000000000000000000000000009
:1047B00000000000000000000000000000000000F9
:1047C00000000000000000005F0005005F00050021
:1047D000E44800000A005F005F005F005F005F00C8
:1047E0005F005F005F005F005F005F005F005F00D1
:1047F0005F005F0000000000190003005F0005007B
:10480000050500000000000000000000000000009E
:104810000000000000000000000000000000000098
:104820000000000000000000000000000000000088
:104830000000000000000000000000000000000078
:104840000000000000000000000000000000000068
:104850000000000000000000000000000000000058
:104860000000000000000000000000000000000048
:10487000010801000000000000000000010000002D
:104880000000000000000000000000009048000050
:10489000584900008049000094490000A8490000E0
:1048A000BC490000D0490000E4490000F84900007C
:1048B00001000000010000000103010000000000F1
:1048C00000000000010000000000000000000000E7
:1048D00000000000D84800000C4A0000204A0000F8
:1048E0006C4900000C0C0C0C0C0C0C0C0C0C0C0C83
:1048F0000C0C02020C0C0C0C0B0000000C00000055
:104900000700000008000000130000001400000071
:10491000150000001600000017000000180000003D
:104920001900000006000000090000000A00000055
:104930000D0000000E0000000F000000100000003D
:1049400011000000120000000200000050490000A9
:1049500068480000B04800000000000001010000AD
:104960000000000000000000000012000A0000002B
:104970000212000000000000000000000000120011
:104980000100000001020000000000000000000023
:1049900000001200020000000103000000000000FF
:1049A00000000000000012000300000001110000E0
:1049B00000000000000000000000120004000000E1
:1049C000010C0000000000000000000000001200C8
:1049D00005000000010D00000000000000000000C4
:1049E0000000120006000000010E000000000000A0
:1049F000000000000000120007000000010F00008E
:104A0000000000000000000000001200080000008C
:104A1000020800000000000000000000000012007A
:104A20000900000002090000000000000000000072
:104A30000000120045060000BD0800004D0B0000FC
:104A40001D0B0000610B00006B0B00005F080000F5
:104A50008D0800000F0500003F0600003305000030
:104A6000410500000106000029000000744A000012
:104A70000000000000800000010000000080000035
:104A8000000A000000800000010A00000080000011
:104A9000020A000000800000030A000000800000FD
:104AA000060A000000800000070A0000000001154F
:104AB000080A000000000115090A000000000100BA
:104AC0000D0A0000000001000E0A000000000100B5
:104AD0000F0A000000800000000B000000800000B2
:104AE000010B000000800000020B0000000001002C
:104AF000030B000000000103050B00000000010390
:104B0000060B000000000103070B0000000001037A
:104B10000C0B0000000001030D0B0000000001035E
:104B20000E0B0000000001030F0B000000800000CE
:104B3000000C000000800000010C0000008000005C
:104B4000020C000000800000030C00000080000048
:104B5000040C000000800000050C000000000000B4
:104B6000060C000000000000070C0000040C000010
:104B7000080D0000040C0000090D0000040C0000EA
:104B80000A0D0000040C00000B0D0000040C0000D6
:104B90000C0D0000040C00000D0D0000040C0000C2
:104BA0000E0D0000040C00000F0D000000000104B9
:104BB000000E000000000104010E00008C01002026
:104BC000C84B0000F44B0000000000000000000093
:104BD00001000000030000000000000001000000D0
:104BE00000010000040000006D2D00000000000026
:104BF000440000206B0300003F0400001903000084
:104C0000B50400008D0200009C010020144C00003F
:104C1000884C0000000000001C4C00000000000058
:104C20000000000000000000AC010020344C000037
:104C3000884C0000010000003C4C00000000000017
:104C40000000000000000000BC010020544C0000E7
:104C5000884C0000020000005C4C000000000000D6
:104C60000000000000000000CC010020744C000097
:104C7000884C0000030000007C4C00000000000095
:104C80000000000000000000C70C00008D0C0000B8
:104C90006B0E0000590D0000430E0000851400004B
:104CA000DB140000E5140000D11400002D140000F6
:104CB000EF130000051400008D0100008E010000BC
:104CC0008F010000900100008F000000C000000074
:104CD00057010000600100006E010000610100004A
:104CE0006F01000063010000710100005901000024
:104CF0005A0100005B01000067010000680100002C
:104D00006901000058010000640100006501000015
:104D100066010000720100007301000074010000D0
:104D2000F1000000FC000000FD0000000000000099
:104D30000000000000000000000000000000000073
:104D40000000000000000000000000000000000063
:104D50000000000000000000000000000000000053
:104D60000000000000000000000000000000000043
:104D70000000000000000000000000000000000033
:104D80000000000000000000000000000000000023
:104D90000000000000000000000000000000000013
:104DA0000000000000000000000000000000000003
:104DB00000000000000000000000000000000000F3
:104DC00000000000000000000000000000000000E3
:104DD00000000000000000000000000000000000D3
:104DE00000000000000000000000000000000000C3
:104DF00000000000000000000000000000000000B3
:104E000000000000000000000000000000000000A2
:104E10000000000000000000000000000000000092
:104E20000000000000000000000000000000000082
:104E30000000000000000000DC010020684A0000C3
:104E4000444E0000F9140000EF1400004F1600005B
:104E50000F150000A9150000CD1500000716000071
:104E6000291600005B16000087160000A11600003E
:104E7000C3160000DB160000F0010020844E000085
:104E80009C4C000001000000A44E0000604F000098
:104E90001C5000000000000007000000000000009F
:104EA000000000000C020020B04E00006452000020
:104EB00004000000B80B0000000000008C0A000095
:104EC00000FF0000DFFFFFFF8F4400000000000034
:104ED000D44E0000010000000000000001000000AE
:104EE00000000000000000000000000000000000C2
:104EF00000000000000000000000000000000000B2
:104F0000000000000000000001FF0000050000009C
:104F1000DFFFFFFF000000000000000000000000B5
:104F2000284F000003011301FF000000DFFFFFFF17
:104F3000000000000000000002000000F00000007F
:104F4000F000000000000000000000000000000071
:104F50000000000000000000000000000000000051
:104F60002C0200206C4F000064520000040000007E
:104F7000B80B0000000000008C0A000001FF0000D8
:104F8000DFFFFFFF0000000000000000904F000066
:104F9000010000000000000001000000000000000F
:104FA0000000000000000000000000000000000001
:104FB00000000000000000000000000000000000F1
:104FC00000000000FFFF0000DFFFFFFFDFFFFFFF2B
:104FD000000000000000000000000000E44F00009E
:104FE00003011301FF000000DFFFFFFF00000000CE
:104FF0000000000000000000F0000000F0000000D1
:1050000000000000000000000000000000000000A0
:105010000000000000000000000000004C02002022
:10502000285000006452000004000000B80B00008B
:10503000000000008C0A000002FF0000DFFFFFFFFD
:1050400000000000000000004C50000001000000C3
:10505000000000000100000000000000000000004F
:105060000000000000000000000000000000000040
:105070000000000000000000000000000000000030
:10508000FFFF0000DFFFFFFFDFFFFFFF000000006A
:105090000000000000000000A05000000301130108
:1050A000FF000000DFFFFFFF000000000000000025
:1050B00000000000F0000000F00000000000000010
:1050C00000000000000000000000000000000000E0
:1050D00000000000000000006C020020E45000000E
:1050E0006452000000000000FEFFFFEF0700000018
:1050F000FFFFFF7703FF0000DFFFFFFF000000005E
:105100000000000008510000000000000000000046
:10511000000000000000000000000000000000008F
:10512000000000000000000000000000000000007F
:10513000000000000000000000000000FFFF000071
:10514000DFFFFFFFDFFFFFFF0000000000000000A7
:105150000000000000000000000000008C020020A1
:10516000685100006452000000000000FEFFFFEFE5
:1051700007000000FFFFFF7704FF0000DFFFFFFFD5
:1051800065300000000000008C51000000000000AD
:10519000000000000000000000000000000000000F
:1051A00000000000000000000000000000F000000F
:1051B00000000000000000000000000000000000EF
:1051C000FF000000DFFFFFFF1A00000000000000EA
:1051D00000000000000000000000000000000000CF
:1051E000AC020020EC5100006452000000000000FE
:1051F000FEFFFFEF07000000FFFFFF7705FF000045
:10520000DFFFFFFF813000000000000010520000AF
:10521000000000000000000000000000000000008E
:10522000000000000000000000000000000F00006F
:1052300000F000000000000000000000000000007E
:1052400000000000000000001B0000001C00000027
:10525000000000000000000000000000000000004E
:10526000000000008D100000C9130000E5130000CD
:10527000BF130000111000004F0F00007D1300004D
:105280006D0F0000410F000049100000D313000013
:10529000770E0000850E0000CC020020A452000012
:1052A0001053000000000000020000000000000099
:1052B00000000000010000000000000001000000EC
:1052C00001000000010000000200000001000000D9
:1052D00003000000000000000000000091440000F6
:1052E00000000000E8520000000000000100000083
:1052F00000000000500000200F000000FFFF000031
:10530000000000000000000000000000010100009B
:105310005D1800006B1B0000851B000037170000A4
:105320004F180000FD160000611700007117000003
:10533000751B000000600000000001200000000854
:1053400000800000000001200000000800000000B4
:1053500000000020000048068C0CC812F9181A1F23
:1053600028251F2BFC30BA36573CCE411D47404CF8
:105370003451F655825AD75EF262D0666E6ACA6DB3
:10538000E370B673427685787D7A2A7C8A7D9D7E2D
:10539000627FD97FFF7FD97F627F9D7E8A7D2A7C55
:1053A0007D7A85784276B673E370CA6D6E6AD06690
:1053B000F262D75E825AF6553451404C1D47CE41B9
:1053C000573CBA36FC301F2B28251A1FF918C81273
:1053D0008C0C48060000B8F974F338ED07E7E6E0F6
:1053E000D8DAE1D404CF46C9A9C332BEE3B8C0B30A
:1053F000CCAE0AAA7EA529A10E9D3099929536922F
:105400001D8F4A8CBE897B878385D6837682638194
:105410009E802780018027809E8063817682D6834C
:1054200083857B87BE894A8C1D8F369292953099F1
:105430000E9D29A17EA50AAACCAEC0B3E3B832BEA8
:10544000A9C346C904CFE1D4D8DAE6E007E738EDCE
:1054500074F3B8F900000505352E352E300042757D
:10546000696C7420776974682052656E6573617326
:1054700020416476616E63656420466C657869627C
:105480006C6520536F667477617265205061636B41
:105490006167652076657273696F6E20352E352ED3
:1054A00030000000000000000000000000000000CC
:1054B00000000000000000000000000000000000EC
:1054C00000000000000000000000000000000000DC
:1054D00000000000000000000000000000000000CC
:1054E0005B320000493200000400000001000000AF
:0854F00000040000300C000074
:020000040100F9
:10A10000FFFFFFFFFFFFFFFFFFFFFFFFFFFFFFFF5F
:10A11000FFFFFFFFFFFFFFFFFFFFFFFFFFFFFFFF4F
:10A12000FFFFFFFFFFFFFFFFFFFFFFFFFFFFFFFF3F
:10A13000FFFFFFFFFFFFFFFFFFFFFFFFFFFFFFFF2F
:10A14000FFFFFFFFFFFFFFFFFFFFFFFFFFFFFFFF1F
:10A15000FFFFFFFFFFFFFFFFFFFFFFFFFFFFFFFF0F
:10A16000FFFFFFFFFFFFFFFFFFFFFFFFFFFFFFFFFF
:10A17000FFFFFFFFFFFFFFFFFFFFFFFFFFFFFFFFEF
:020000040100F9
:10A20000FFFDF0FFFFFFFFFFFFFFFFFFFFFFFFFF6F
:10A21000FFFFFFFFFFFFFFFFFFFFFFFFFFFFFFFF4E
:10A22000FFFFFFFFFFFFFFFFFFFFFFFFFFFFFFFF3E
:10A23000FFFFFFFFFFFFFFFFFFFFFFFFFFFFFFFF2E
:10A24000FFFFFFFFFFFFFFFFFFFFFFFFFFFFFFFF1E
:10A25000FFFFFFFFFFFFFFFFFFFFFFFFFFFFFFFF0E
:10A26000FFFFFFFFFFFFFFFFFFFFFFFFFFFFFFFFFE
:10A27000FFFFFFFFFFFFFFFFFFFFFFFFFFFFFFFFEE
:10A28000F8F8F0FFFFFFFFFFFFFFFFFFFFFFFFFFFB
:10A29000FFFFFFFFFFFFFFFFFFFFFFFFFFFFFFFFCE
:10A2A000FFFFFFFFFFFFFFFFFFFFFFFFFFFFFFFFBE
:10A2B000FFFFFFFFFFFFFFFFFFFFFFFFFFFFFFFFAE
:10A2C000FFFFFFFFFFFFFFFFFFFFFFFFFFFFFFFF9E
:10A2D000FFFFFFFFFFFFFFFFFFFFFFFFFFFFFFFF8E
:10A2E000FFFFFFFFFFFFFFFFFFFFFFFFFFFFFFFF7E
:10A2F000FFFFFFFFFFFFFFFFFFFFFFFFFFFFFFFF6E
:0400000500001BD10B
:00000001FF
